{
  "contractName": "VotingContract",
  "abi": [
    {
      "constant": true,
      "inputs": [
        {
          "name": "",
          "type": "address"
        }
      ],
      "name": "voterVotes",
      "outputs": [
        {
          "name": "",
          "type": "bool"
        }
      ],
      "payable": false,
      "stateMutability": "view",
      "type": "function"
    },
    {
      "constant": true,
      "inputs": [],
      "name": "optionYes",
      "outputs": [
        {
          "name": "",
          "type": "string"
        }
      ],
      "payable": false,
      "stateMutability": "view",
      "type": "function"
    },
    {
      "constant": true,
      "inputs": [],
      "name": "votingActive",
      "outputs": [
        {
          "name": "",
          "type": "bool"
        }
      ],
      "payable": false,
      "stateMutability": "view",
      "type": "function"
    },
    {
      "constant": true,
      "inputs": [],
      "name": "pollQuestion",
      "outputs": [
        {
          "name": "",
          "type": "string"
        }
      ],
      "payable": false,
      "stateMutability": "view",
      "type": "function"
    },
    {
      "constant": true,
      "inputs": [],
      "name": "owner",
      "outputs": [
        {
          "name": "",
          "type": "address"
        }
      ],
      "payable": false,
      "stateMutability": "view",
      "type": "function"
    },
    {
      "constant": true,
      "inputs": [],
      "name": "noVotes",
      "outputs": [
        {
          "name": "",
          "type": "uint256"
        }
      ],
      "payable": false,
      "stateMutability": "view",
      "type": "function"
    },
    {
      "constant": true,
      "inputs": [],
      "name": "votingPeriodDuration",
      "outputs": [
        {
          "name": "",
          "type": "uint256"
        }
      ],
      "payable": false,
      "stateMutability": "view",
      "type": "function"
    },
    {
      "constant": true,
      "inputs": [],
      "name": "optionNo",
      "outputs": [
        {
          "name": "",
          "type": "string"
        }
      ],
      "payable": false,
      "stateMutability": "view",
      "type": "function"
    },
    {
      "constant": true,
      "inputs": [],
      "name": "yesVotes",
      "outputs": [
        {
          "name": "",
          "type": "uint256"
        }
      ],
      "payable": false,
      "stateMutability": "view",
      "type": "function"
    },
    {
      "inputs": [],
      "payable": false,
      "stateMutability": "nonpayable",
      "type": "constructor"
    },
    {
      "anonymous": false,
      "inputs": [
        {
          "indexed": false,
          "name": "voter",
          "type": "address"
        },
        {
          "indexed": false,
          "name": "vote",
          "type": "bool"
        }
      ],
      "name": "VoteCast",
      "type": "event"
    },
    {
      "anonymous": false,
      "inputs": [],
      "name": "VotingPeriodEnded",
      "type": "event"
    },
    {
      "constant": false,
      "inputs": [
        {
          "name": "_duration",
          "type": "uint256"
        }
      ],
      "name": "setVotingPeriodDuration",
      "outputs": [],
      "payable": false,
      "stateMutability": "nonpayable",
      "type": "function"
    },
    {
      "constant": true,
      "inputs": [],
      "name": "getPoll",
      "outputs": [
        {
          "name": "",
          "type": "string"
        },
        {
          "name": "",
          "type": "string"
        },
        {
          "name": "",
          "type": "string"
        }
      ],
      "payable": false,
      "stateMutability": "view",
      "type": "function"
    },
    {
      "constant": false,
      "inputs": [
        {
          "name": "_vote",
          "type": "bool"
        }
      ],
      "name": "castVote",
      "outputs": [],
      "payable": false,
      "stateMutability": "nonpayable",
      "type": "function"
    },
    {
      "constant": true,
      "inputs": [],
      "name": "hasVotingPeriodEnded",
      "outputs": [
        {
          "name": "",
          "type": "bool"
        }
      ],
      "payable": false,
      "stateMutability": "view",
      "type": "function"
    },
    {
      "constant": true,
      "inputs": [],
      "name": "getResults",
      "outputs": [
        {
          "name": "",
          "type": "uint256"
        },
        {
          "name": "",
          "type": "uint256"
        }
      ],
      "payable": false,
      "stateMutability": "view",
      "type": "function"
    },
    {
      "constant": false,
      "inputs": [],
      "name": "endVotingPeriod",
      "outputs": [],
      "payable": false,
      "stateMutability": "nonpayable",
      "type": "function"
    }
  ],
  "bytecode": "0x608060405234801561001057600080fd5b5060088054600160a060020a031916331790556004805460ff19166001179055610b208061003f6000396000f3fe6080604052600436106100da5763ffffffff7c010000000000000000000000000000000000000000000000000000000060003504166303c3227881146100df57806320ee7ba8146102385780633bedd6ca1461028c578063408e27271461031657806346d392ea1461032b5780634717f97c146103405780637ace48e71461036e5780638da5cb5b1461039c5780639a852204146103da578063b5b47f42146103ef578063b5fdb88e14610416578063e1297e9a1461042b578063e42c104c14610455578063e80a57a51461046a578063fb286c651461047f575b600080fd5b3480156100eb57600080fd5b506100f4610494565b60405180806020018060200180602001848103845287818151815260200191508051906020019080838360005b83811015610139578181015183820152602001610121565b50505050905090810190601f1680156101665780820380516001836020036101000a031916815260200191505b50848103835286518152865160209182019188019080838360005b83811015610199578181015183820152602001610181565b50505050905090810190601f1680156101c65780820380516001836020036101000a031916815260200191505b50848103825285518152855160209182019187019080838360005b838110156101f95781810151838201526020016101e1565b50505050905090810190601f1680156102265780820380516001836020036101000a031916815260200191505b50965050505050505060405180910390f35b34801561024457600080fd5b506102786004803603602081101561025b57600080fd5b503573ffffffffffffffffffffffffffffffffffffffff16610654565b604080519115158252519081900360200190f35b34801561029857600080fd5b506102a1610669565b6040805160208082528351818301528351919283929083019185019080838360005b838110156102db5781810151838201526020016102c3565b50505050905090810190601f1680156103085780820380516001836020036101000a031916815260200191505b509250505060405180910390f35b34801561032257600080fd5b506102786106f4565b34801561033757600080fd5b506102a16106fd565b34801561034c57600080fd5b50610355610757565b6040805192835260208301919091528051918290030190f35b34801561037a57600080fd5b5061039a6004803603602081101561039157600080fd5b503515156107c4565b005b3480156103a857600080fd5b506103b16108ff565b6040805173ffffffffffffffffffffffffffffffffffffffff9092168252519081900360200190f35b3480156103e657600080fd5b5061027861091b565b3480156103fb57600080fd5b50610404610923565b60408051918252519081900360200190f35b34801561042257600080fd5b50610404610929565b34801561043757600080fd5b5061039a6004803603602081101561044e57600080fd5b503561092f565b34801561046157600080fd5b506102a16109c9565b34801561047657600080fd5b5061039a610a24565b34801561048b57600080fd5b50610404610aee565b600180546040805160206002848616156101000260001901909416849004601f8101829004820283018201909352828252606094859485949193909260039285918301828280156105265780601f106104fb57610100808354040283529160200191610526565b820191906000526020600020905b81548152906001019060200180831161050957829003601f168201915b5050855460408051602060026001851615610100026000190190941693909304601f8101849004840282018401909252818152959850879450925084019050828280156105b45780601f10610589576101008083540402835291602001916105b4565b820191906000526020600020905b81548152906001019060200180831161059757829003601f168201915b5050845460408051602060026001851615610100026000190190941693909304601f8101849004840282018401909252818152959750869450925084019050828280156106425780601f1061061757610100808354040283529160200191610642565b820191906000526020600020905b81548152906001019060200180831161062557829003601f168201915b50505050509050925092509250909192565b60076020526000908152604090205460ff1681565b6002805460408051602060018416156101000260001901909316849004601f810184900484028201840190925281815292918301828280156106ec5780601f106106c1576101008083540402835291602001916106ec565b820191906000526020600020905b8154815290600101906020018083116106cf57829003601f168201915b505050505081565b60045460ff1681565b60018054604080516020600284861615610100026000190190941693909304601f810184900484028201840190925281815292918301828280156106ec5780601f106106c1576101008083540402835291602001916106ec565b60008061076261091b565b15156107b8576040805160e560020a62461bcd02815260206004820152601b60248201527f566f74696e6720706572696f6420686173206e6f7420656e6465640000000000604482015290519081900360640190fd5b50506005546006549091565b60045460ff161515610820576040805160e560020a62461bcd02815260206004820152601760248201527f566f74696e6720706572696f642068617320656e646564000000000000000000604482015290519081900360640190fd5b3360009081526007602052604090205460ff1615610888576040805160e560020a62461bcd02815260206004820152601660248201527f596f75206861766520616c726561647920766f74656400000000000000000000604482015290519081900360640190fd5b801561089c576005805460010190556108a6565b6006805460010190555b33600081815260076020908152604091829020805460ff1916600117905581519283528315159083015280517fa32151c21b193dcf3d43d553597e960d429ef6cafad3492ee4790e41be1ce5209281900390910190a150565b60085473ffffffffffffffffffffffffffffffffffffffff1681565b600054421190565b60065481565b60005481565b60085473ffffffffffffffffffffffffffffffffffffffff1633146109c4576040805160e560020a62461bcd02815260206004820152603160248201527f4f6e6c7920746865206f776e65722063616e207365742074686520766f74696e60448201527f6720706572696f64206475726174696f6e000000000000000000000000000000606482015290519081900360840190fd5b600055565b6003805460408051602060026001851615610100026000190190941693909304601f810184900484028201840190925281815292918301828280156106ec5780601f106106c1576101008083540402835291602001916106ec565b60085473ffffffffffffffffffffffffffffffffffffffff163314610ab9576040805160e560020a62461bcd02815260206004820152602860248201527f4f6e6c7920746865206f776e65722063616e20656e642074686520766f74696e60448201527f6720706572696f64000000000000000000000000000000000000000000000000606482015290519081900360840190fd5b6004805460ff191690556040517fdc3b0dc4cea73353d00fd7b2be22878133bb4e0f93f68509e328782ee95c363f90600090a1565b6005548156fea165627a7a72305820d2b128f4ccf70d513d8836170896bfb45e1565b49e1e6e46696275e2317888610029",
  "source": "// SPDX-License-Identifier: MIT\npragma solidity >=0.4.22 <0.9.0;\n\ncontract VotingContract {\n    // Define the voting period duration (in seconds)\n    uint public votingPeriodDuration;\n\n    // Define the poll question and options\n    string public pollQuestion;\n    string public optionYes;\n    string public optionNo;\n\n    // Define the voting status (true = voting period active, false = voting period ended)\n    bool public votingActive;\n\n    // Define the vote counts for each option\n    uint public yesVotes;\n    uint public noVotes;\n\n    // Define the mapping of voters to their votes\n    mapping (address => bool) public voterVotes;\n\n    // Event emitted when a vote is cast\n    event VoteCast(address voter, bool vote);\n\n    // Event emitted when the voting period ends\n    event VotingPeriodEnded();\n\n    // Define the owner of the contract\n    address public owner;\n\n    // Constructor function\n    constructor() public {\n        owner = msg.sender;\n        votingActive = true;\n    }\n\n    // Function to set the voting period duration\n    function setVotingPeriodDuration(uint _duration) public {\n        require(msg.sender == owner, \"Only the owner can set the voting period duration\");\n        votingPeriodDuration = _duration;\n    }\n\n    // Function to display the poll\n    function getPoll() public view returns (string memory, string memory, string memory) {\n        return (pollQuestion, optionYes, optionNo);\n    }\n\n    // Function to cast a vote\n    function castVote(bool _vote) public {\n        require(votingActive, \"Voting period has ended\");\n        require(!voterVotes[msg.sender], \"You have already voted\");\n\n        if (_vote) {\n            yesVotes++;\n        } else {\n            noVotes++;\n        }\n\n        voterVotes[msg.sender] = true;\n\n        emit VoteCast(msg.sender, _vote);\n    }\n\n    // Function to check if the voting period has ended\n    function hasVotingPeriodEnded() public view returns (bool) {\n        return block.timestamp > votingPeriodDuration;\n    }\n\n    // Function to tally the results\n    function getResults() public view returns (uint, uint) {\n        require(hasVotingPeriodEnded(), \"Voting period has not ended\");\n\n        return (yesVotes, noVotes);\n    }\n\n    // Function to end the voting period\n    function endVotingPeriod() public {\n        require(msg.sender == owner, \"Only the owner can end the voting period\");\n        votingActive = false;\n        emit VotingPeriodEnded();\n    }\n}",
  "sourcePath": "/root/Projects/VDAP/contracts/Migrations.sol",
  "compiler": {
    "name": "solc",
    "version": "0.5.0+commit.1d4f565a.Emscripten.clang"
  },
  "schemaVersion": "3.0.1",
  "updatedAt": "2024-06-30T09:58:35.793Z",
  "devdoc": {
    "methods": {}
  },
  "userdoc": {
    "methods": {}
  }
}