{
  "contractName": "Voting",
  "abi": [
    {
      "constant": true,
      "inputs": [],
      "name": "candidatesCount",
      "outputs": [
        {
          "name": "",
          "type": "uint256"
        }
      ],
      "payable": false,
      "stateMutability": "view",
      "type": "function",
      "signature": "0x2d35a8a2"
    },
    {
      "constant": true,
      "inputs": [
        {
          "name": "",
          "type": "uint256"
        }
      ],
      "name": "candidates",
      "outputs": [
        {
          "name": "id",
          "type": "uint256"
        },
        {
          "name": "name",
          "type": "string"
        },
        {
          "name": "voteCount",
          "type": "uint256"
        }
      ],
      "payable": false,
      "stateMutability": "view",
      "type": "function",
      "signature": "0x3477ee2e"
    },
    {
      "constant": true,
      "inputs": [],
      "name": "votingEnd",
      "outputs": [
        {
          "name": "",
          "type": "uint256"
        }
      ],
      "payable": false,
      "stateMutability": "view",
      "type": "function",
      "signature": "0x85a38635"
    },
    {
      "constant": true,
      "inputs": [
        {
          "name": "",
          "type": "address"
        }
      ],
      "name": "voters",
      "outputs": [
        {
          "name": "",
          "type": "bool"
        }
      ],
      "payable": false,
      "stateMutability": "view",
      "type": "function",
      "signature": "0xa3ec138d"
    },
    {
      "inputs": [
        {
          "name": "_votingPeriod",
          "type": "uint256"
        }
      ],
      "payable": false,
      "stateMutability": "nonpayable",
      "type": "constructor",
      "signature": "constructor"
    },
    {
      "constant": false,
      "inputs": [
        {
          "name": "_name",
          "type": "string"
        }
      ],
      "name": "addCandidate",
      "outputs": [],
      "payable": false,
      "stateMutability": "nonpayable",
      "type": "function",
      "signature": "0x462e91ec"
    },
    {
      "constant": false,
      "inputs": [
        {
          "name": "_candidateId",
          "type": "uint256"
        }
      ],
      "name": "vote",
      "outputs": [],
      "payable": false,
      "stateMutability": "nonpayable",
      "type": "function",
      "signature": "0x0121b93f"
    },
    {
      "constant": true,
      "inputs": [],
      "name": "getResult",
      "outputs": [
        {
          "components": [
            {
              "name": "id",
              "type": "uint256"
            },
            {
              "name": "name",
              "type": "string"
            },
            {
              "name": "voteCount",
              "type": "uint256"
            }
          ],
          "name": "",
          "type": "tuple[]"
        }
      ],
      "payable": false,
      "stateMutability": "view",
      "type": "function",
      "signature": "0xde292789"
    }
  ],
  "bytecode": "0x608060405234801561001057600080fd5b50604051602080610a61833981018060405261002f919081019061004c565b4201600355610075565b60006100458251610072565b9392505050565b60006020828403121561005e57600080fd5b600061006a8484610039565b949350505050565b90565b6109dd806100846000396000f3fe6080604052600436106100825763ffffffff7c01000000000000000000000000000000000000000000000000000000006000350416630121b93f81146100875780632d35a8a2146100a95780633477ee2e146100d4578063462e91ec1461010357806385a3863514610123578063a3ec138d14610138578063de29278914610165575b600080fd5b34801561009357600080fd5b506100a76100a236600461065e565b610187565b005b3480156100b557600080fd5b506100be61024d565b6040516100cb919061089e565b60405180910390f35b3480156100e057600080fd5b506100f46100ef36600461065e565b610253565b6040516100cb939291906108ac565b34801561010f57600080fd5b506100a761011e366004610629565b6102ff565b34801561012f57600080fd5b506100be610360565b34801561014457600080fd5b50610158610153366004610603565b610366565b6040516100cb919061084a565b34801561017157600080fd5b5061017a61037b565b6040516100cb9190610839565b60035442106101b45760405160e560020a62461bcd0281526004016101ab9061087e565b60405180910390fd5b3360009081526020819052604090205460ff16156101e75760405160e560020a62461bcd0281526004016101ab9061088e565b6000811180156101f957506002548111155b151561021a5760405160e560020a62461bcd0281526004016101ab9061086e565b33600090815260208181526040808320805460ff1916600190811790915593835290839052902060020180549091019055565b60025481565b600160208181526000928352604092839020805481840180548651600296821615610100026000190190911695909504601f810185900485028601850190965285855290949193929091908301828280156102ef5780601f106102c4576101008083540402835291602001916102ef565b820191906000526020600020905b8154815290600101906020018083116102d257829003601f168201915b5050505050908060020154905083565b6002805460019081019182905560408051606081018252838152602080820186815260008385018190529586528482529290942081518155915180519194929361034f93908501929101906104d6565b506040820151816002015590505050565b60035481565b60006020819052908152604090205460ff1681565b6003546060904210156103a35760405160e560020a62461bcd0281526004016101ab9061085e565b60606002546040519080825280602002602001820160405280156103e157816020015b6103ce610554565b8152602001906001900390816103c65790505b50905060015b60025481116104cf5760008181526001602081815260409283902083516060810185528154815281840180548651600296821615610100026000190190911695909504601f810185900485028601850190965285855290949193858401939092908301828280156104995780601f1061046e57610100808354040283529160200191610499565b820191906000526020600020905b81548152906001019060200180831161047c57829003601f168201915b5050505050815260200160028201548152505082600183038151811015156104bd57fe5b602090810290910101526001016103e7565b5090505b90565b828054600181600116156101000203166002900490600052602060002090601f016020900481019282601f1061051757805160ff1916838001178555610544565b82800160010185558215610544579182015b82811115610544578251825591602001919060010190610529565b50610550929150610576565b5090565b6060604051908101604052806000815260200160608152602001600081525090565b6104d391905b80821115610550576000815560010161057c565b600061059c8235610952565b9392505050565b6000601f820183136105b457600080fd5b81356105c76105c282610902565b6108db565b915080825260208301602083018583830111156105e357600080fd5b6105ee83828461095d565b50505092915050565b600061059c82356104d3565b60006020828403121561061557600080fd5b60006106218484610590565b949350505050565b60006020828403121561063b57600080fd5b813567ffffffffffffffff81111561065257600080fd5b610621848285016105a3565b60006020828403121561067057600080fd5b600061062184846105f7565b600061068782610930565b808452602084019350836020820285016106a08561092a565b60005b848110156106d75783830388526106bb8383516107e7565b92506106c68261092a565b6020989098019791506001016106a3565b50909695505050505050565b6106ec81610934565b82525050565b60006106fd82610930565b808452610711816020860160208601610969565b61071a81610999565b9093016020019392505050565b601e81527f566f74696e6720706572696f64206973206e6f742079657420656e6465640000602082015260400190565b601181527f496e76616c69642063616e646964617465000000000000000000000000000000602082015260400190565b601781527f566f74696e6720706572696f642068617320656e646564000000000000000000602082015260400190565b601681527f596f75206861766520616c726561647920766f74656400000000000000000000602082015260400190565b805160009060608401906107fb8582610830565b506020830151848203602086015261081382826106f2565b91505060408301516108286040860182610830565b509392505050565b6106ec816104d3565b6020808252810161059c818461067c565b6020810161085882846106e3565b92915050565b6020808252810161085881610727565b6020808252810161085881610757565b6020808252810161085881610787565b60208082528101610858816107b7565b602081016108588284610830565b606081016108ba8286610830565b81810360208301526108cc81856106f2565b90506106216040830184610830565b60405181810167ffffffffffffffff811182821017156108fa57600080fd5b604052919050565b600067ffffffffffffffff82111561091957600080fd5b506020601f91909101601f19160190565b60200190565b5190565b151590565b73ffffffffffffffffffffffffffffffffffffffff1690565b600061085882610939565b82818337506000910152565b60005b8381101561098457818101518382015260200161096c565b83811115610993576000848401525b50505050565b601f01601f19169056fea265627a7a723058206ca50c42b112f97fdeec98b0a444672b4147a778d35c41f14353a26c904ae86a6c6578706572696d656e74616cf50037",
  "source": "\npragma solidity >=0.4.21 <0.6.0;\npragma experimental ABIEncoderV2;\n\ncontract Voting {\n    struct Candidate {\n        uint id;\n        string name;\n        uint voteCount;\n    }\n\n    mapping(address => bool) public voters;\n    mapping(uint => Candidate) public candidates;\n    uint public candidatesCount;\n    uint public votingEnd;\n\n    constructor(uint _votingPeriod) public  {\n        votingEnd = block.timestamp + _votingPeriod;\n    }\n\n    function addCandidate(string memory _name) public {\n        candidatesCount++;\n        candidates[candidatesCount] = Candidate(candidatesCount, _name, 0);\n    }\n\n    function vote(uint _candidateId) public {\n        require(block.timestamp < votingEnd, \"Voting period has ended\");\n        require(!voters[msg.sender], \"You have already voted\");\n        require(_candidateId > 0 && _candidateId <= candidatesCount, \"Invalid candidate\");\n\n        voters[msg.sender] = true;\n        candidates[_candidateId].voteCount++;\n    }\n\n    function getResult() public view returns (Candidate[] memory) {\n        require(block.timestamp >= votingEnd, \"Voting period is not yet ended\");\n\n        Candidate[] memory results = new Candidate[](candidatesCount);\n        for (uint i = 1; i <= candidatesCount; i++) {\n            results[i - 1] = candidates[i];\n        }\n        return results;\n    }\n}",
  "sourcePath": "/root/Projects/VDAP/contracts/Voting.sol",
  "compiler": {
    "name": "solc",
    "version": "0.5.0+commit.1d4f565a.Emscripten.clang"
  },
  "schemaVersion": "3.0.1",
  "updatedAt": "2024-07-01T17:06:03.296Z",
  "devdoc": {
    "methods": {}
  },
  "userdoc": {
    "methods": {}
  }
}